:1000000071C000008EC000008CC000008AC00000DB
:1000100088C000003FC2000084C0000082C0000011
:1000200080C000007EC000007CC000007AC00000DC
:1000300078C0000076C0000074C0000072C00000EC
:1000400070C000006EC000006CC000006AC00000FC
:1000500068C0000066C0000064C0000062C000000C
:1000600060C000005EC000005CC000005AC000001C
:1000700058C0000056C0000054C0000052C000002C
:1000800050C000004EC000004CC000004AC000003C
:1000900048C0000046C0000044C0000042C000004C
:1000A00040C000003EC000003CC000003AC000005C
:1000B00038C0000036C0000034C0000032C000006C
:1000C00030C000002EC000002CC000002AC000007C
:1000D00028C0000026C0000024C0000022C000008C
:1000E00020C0000011241FBECFEFD1E2DEBFCDBF84
:1000F00000E00CBF12E0A0E0B2E0ECE9FAE000E0C2
:100100000BBF02C007900D92A23AB107D9F722E0C7
:10011000A2EAB2E001C01D92A23AB207E1F7A3D170
:10012000BBC46ECF82B985B18B7F85B985B18D7F18
:1001300085B985B1816085B98FE097E20197F1F7C4
:1001400000C0000085B18E7F85B9089582B985B160
:10015000846085B985B18D7F85B985B1816085B9A8
:100160008FE097E20197F1F700C0000085B18E7F24
:1001700085B9089588E3D6DF8EE0D4DF86E0D2DF4C
:1001800081E0D0CF08950F931F93CF93DF938C011D
:10019000C0E0D0E006C0F801EC0FFD1F8081D6DF83
:1001A0002196F80101900020E9F73197E01BF10B4F
:1001B000CE17DF0780F3DF91CF911F910F91089544
:1001C0008EEF809308018091060184FF35C08091F5
:1001D000060185FF34C08091060186FF33C08091FF
:1001E0000601882394F58DEF809308018091060124
:1001F00084FF2EC08091060185FF2DC080910601ED
:1002000086FF2CC08091060188235CF58BEF8093DC
:1002100008018091060184FF27C08091060185FFB7
:1002200026C08091060186FF25C0809106018823A3
:1002300024F18CE291E0089581E090E0089584E05B
:1002400090E0089587E090E0089584E690E00895B6
:1002500082E090E0089585E090E0089588E090E0E5
:10026000089580E090E0089583E090E0089586E0AE
:1002700090E0089589E090E0089588EC90E008957A
:100280002CED35E0AC01429FC001439F900D529F81
:10029000900D1124089520E030E01AC081B38160F0
:1002A00081BB4FEF80E792E0415080409040E1F702
:1002B00000C0000081B38E7F81BB4FEF80E792E0EA
:1002C000415080409040E1F700C000002F5F3F4F59
:1002D000233031051CF32FEF43ED80E321504040E4
:1002E0008040E1F700C000000895EF92FF920F9365
:1002F0001F93CF93DF93CDB7DEB72A970FB6F8944D
:10030000DEBF0FBECDBF81E00DDF80E80BDF80E0F8
:1003100092E039DF80EC06DF80E192E034DF84E9AF
:1003200001DF83E292E02FDF4BDF8C0102C048DF68
:100330008C01083C1105D9F384EDF4DE802F06DF33
:100340002FEF43ED80E3215040408040E1F700C0B3
:100350000000C80195DF9F938F9383E392E09F9302
:100360008F93CE0101967C019F938F93BAD081E049
:10037000D9DE80E8D7DE86E392E005DF8BE8D2DEC7
:10038000C70101DF80ECCEDE82E492E0FCDE84E98E
:10039000C9DE8DE492E0F7DE13DF7C010F900F9051
:1003A0000F900F900F900F9002C00ADF7C0198EC25
:1003B000E916F104D1F384EDB5DEC7019927E3DE38
:1003C0002FEF43ED80E3215040408040E1F700C033
:1003D0000000EA94EF2849F55EDF20E030E01AC023
:1003E00081B3826081BB4FEF89E698E14150804044
:1003F0009040E1F700C0000081B38D7F81BB4FEFDB
:1004000083ED90E3415080409040E1F700C0000050
:100410002F5F3F4F201731071CF381E083DE80E818
:1004200081DE8DE592E0AFDE11C081E07BDE80E809
:1004300079DE88E692E0A7DE80EC74DE8AE792E05F
:10044000A2DE84E96FDE8DE892E09DDE2A960FB68B
:10045000F894DEBF0FBECDBFDF91CF911F910F91FA
:10046000FF90EF90089587E0809307019FEF9AB97E
:100470008DB187608DB98DB18F7E8DB990BB7ADEDD
:1004800078948DB380618DBBEAE6F0E08081836073
:100490008083FFCF1F920F920FB60F9211240BB6DD
:1004A0000F922F933F934F935F936F937F938F930D
:1004B0009F93AF93BF93EF93FF9317DFFF91EF915C
:1004C000BF91AF919F918F917F916F915F914F916C
:1004D0003F912F910F900BBE0F900FBE0F901F906A
:1004E00018950F931F93CF93DF93CDB7DEB72E9759
:1004F0000FB6F894DEBF0FBECDBF0E891F8986E010
:100500008C831A8309838FEF9FE79E838D83AE01CF
:10051000465E5F4F688D798DCE01019610D0EF81D8
:10052000F885E00FF11F10822E960FB6F894DEBF0B
:100530000FBECDBFDF91CF911F910F9108952F92E4
:100540003F924F925F926F927F928F929F92AF9263
:10055000BF92CF92DF92EF92FF920F931F93CF93B0
:10056000DF93CDB7DEB72B970FB6F894DEBF0FBE83
:10057000CDBF6C017B018A01FC0117821682838149
:1005800081FFBFC1CE0101963C01F6019381F701C5
:1005900093FD859193FF81917F01882309F4ADC17B
:1005A000853239F493FD859193FF81917F018532E6
:1005B00021F4B60190E0D6D1E8CF912C212C312C3A
:1005C000FFE1F315D8F08B3279F038F4803279F00E
:1005D0008332A1F4232D20611DC08D3261F0803360
:1005E00069F4232D216016C0832D8260382EE32DFF
:1005F000E4603E2E2AC0F32DF8601DC037FC2DC0EC
:1006000020ED280F2A3040F08E32B9F436FC75C147
:10061000232D2064322E19C036FE06C08AE0989E33
:10062000200D1124922E11C0EAE02E9E200D1124DF
:10063000222EF32DF0623F2E08C08C3621F4832D3C
:100640008068382E02C0883641F4F70193FD859109
:1006500093FF81917F018111B3CF982F9F7D955496
:10066000933028F40C5F1F4F9FE399830DC08336AE
:1006700031F0833771F0833509F055C020C0F8019F
:10068000808189830E5F1F4F88248394912C5301AE
:1006900012C02801F2E04F0E511CF801A080B18079
:1006A00036FE03C0692D70E002C06FEF7FEFC50119
:1006B0004ED14C018201F32DFF773F2E15C028014A
:1006C00022E0420E511CF801A080B18036FE03C02A
:1006D000692D70E002C06FEF7FEFC5012DD14C0195
:1006E000F32DF0683F2E820133FC19C0822D90E07B
:1006F00088169906A0F4B60180E290E033D12A94DE
:10070000F5CFF50137FC859137FE81915F01B60188
:1007100090E028D121102A9421E0821A91088114B6
:10072000910479F7E1C0843611F0893639F5F80182
:1007300037FE07C060817181828193810C5F1F4FFA
:1007400008C060817181072E000C880B990B0E5F29
:100750001F4FF32DFF763F2E97FF09C09095809590
:10076000709561957F4F8F4F9F4FF0683F2E2AE025
:1007700030E0A30133D1882E861844C0853731F488
:10078000232D2F7EB22E2AE030E025C0932D997FB5
:10079000B92E8F36C1F018F4883579F0AEC08037A5
:1007A00019F0883721F0A9C0E92FE061BE2EB4FE10
:1007B0000DC0FB2DF460BF2E09C034FE0AC0292FE6
:1007C0002660B22E06C028E030E005C020E130E00F
:1007D00002C020E132E0F801B7FE07C060817181FC
:1007E000828193810C5F1F4F06C06081718180E020
:1007F00090E00E5F1F4FA301F1D0882E8618FB2DCD
:10080000FF773F2E36FE0DC0232D2E7FA22E89149A
:1008100058F434FE0BC032FC09C0832D8E7EA82E06
:1008200005C0B82CA32C03C0B82C01C0B92CA4FE61
:100830000FC0FE01E80DF11D8081803321F49A2D57
:10084000997EA92E09C0A2FE06C0B394B39404C039
:100850008A2D867809F0B394A3FC10C0A0FE06C0D0
:10086000B21480F4280C922C9B180DC0B21458F4CA
:10087000B60180E290E076D0B394F8CFB21418F4C9
:100880002B1802C0982C212CA4FE0FC0B60180E3C7
:1008900090E068D0A2FE16C0A1FC03C088E790E0FB
:1008A00002C088E590E0B6010CC08A2D867851F030
:1008B000A1FE02C08BE201C080E2A7FC8DE2B6017E
:1008C00090E050D0891430F4B60180E390E04AD033
:1008D0009A94F8CF8A94F301E80DF11D8081B60156
:1008E00090E040D08110F6CF222009F44ECEB60120
:1008F00080E290E037D02A94F7CFF6018681978185
:1009000002C08FEF9FEF2B960FB6F894DEBF0FBE9D
:10091000CDBFDF91CF911F910F91FF90EF90DF90AE
:10092000CF90BF90AF909F908F907F906F905F908F
:100930004F903F902F900895FC01059061507040BA
:100940000110D8F7809590958E0F9F1F0895FC0198
:100950006150704001900110D8F7809590958E0FEE
:100960009F1F08950F931F93CF93DF93FB01238164
:1009700021FD03C08FEF9FEF2CC022FF16C04681E0
:100980005781248135814217530744F4A081B181F6
:100990009D012F5F3F4F318320838C9326813781C8
:1009A0002F5F3F4F3783268314C08B01EC01FB017F
:1009B0000084F185E02D1995892BE1F6D801169672
:1009C0008D919C911797019617969C938E931697ED
:1009D000CE01DF91CF911F910F910895FA01AA27BF
:1009E000283051F1203181F1E8946F936E7F6E5F72
:1009F0007F4F8F4F9F4FAF4FB1E03ED0B4E03CD020
:100A0000670F781F891F9A1FA11D680F791F8A1F02
:100A1000911DA11D6A0F711D811D911DA11D20D069
:100A200009F468943F912AE0269F11243019305D23
:100A30003193DEF6CF010895462F4770405D419314
:100A4000B3E00FD0C9F7F6CF462F4F70405D4A3361
:100A500018F0495D31FD4052419302D0A9F7EACF29
:100A6000B4E0A6959795879577956795BA95C9F758
:100A700000976105710508959B01AC010A2E06944B
:100A80005795479537952795BA95C9F7620F731F04
:0C0A9000841F951FA01D0895F894FFCF4F
:100A9C00576174657220617661696C61624C6500A6
:100AAC00405547582031353030206120626F7474C6
:100ABC006C65004E6F2E206F6620626F74746C65CF
:100ACC00733F00256400544F54414C3A205547580D
:100ADC0020005472616E736163743F2000313A20C0
:100AEC005965732C20323A657869742000436F6D18
:100AFC006520616761696E00536F72727920747240
:100B0C00616E73616374696F6E00776173206E6FD1
:100B1C007420636F6D706C657465642C00506C652B
:100B2C006173652074727920616761696E2121217E
:020B3C000000B7
:00000001FF
